:020000040800F2
:1000000000000120C5020008CB020008CF02000852
:1000100041030008450300088D03000800000000AC
:10002000000000000000000000000000D5030008F0
:10003000D903000800000000DD0300082D160008A9
:10004000F1030008F1030008F1030008F1030008C0
:10005000F1030008F10300085511000875110008AC
:1000600095110008B5110008D5110008F10300082A
:10007000F1030008F1030008F1030008F103000890
:10008000F1030008F1030008F1030008000000007C
:10009000000000000000000000000000F511000852
:1000A000F1030008F1030008F1030008F103000860
:1000B000F1030008F1030008F1030008F103000850
:1000C000F1030008F1030008F1030008F103000840
:1000D000F1030008F1030008F1030008000000002C
:1000E0005D120008F1030008F103000800000000A1
:1000F000000000000000000000000000F103000804
:1001000000000000F1030008F1030008F1030008FB
:1001100000000000000000000000000000000000DF
:10012000F1030008F1030008F1030008F1030008DF
:10013000F1030008000000000000000000000000C3
:10014000000000000000000000000000F1030008B3
:10015000F1030008F1030008F1030008F1030008AF
:10016000F1030008F1030008000000000000000097
:10017000000000000000000000000000000000007F
:1001800000000000F1030008000000000000000073
:10019000F103000800B583B000F046FE384B394A41
:1001A0001360394A1360394900E02146384B9942BF
:1001B0000BD20A684B6801F10C0488689842F4D9A4
:1001C0001168196004330432F8E72E4B1A68314B7A
:1001D0009A4200D0FEE72C4B1A682F4B9A42F9D175
:1001E000274B2E4A13602E4A13602E4B05E0002049
:1001F000106004329342FAD80B462B4A934204D241
:10020000194651F8082B5B68F4E7244B1B6813B9B7
:10021000234B1B6803B1FEE701F09EFA694601A873
:1002200000F094FD214C224BE41AA4100025AC42AE
:1002300014DC204C204BE41AA4100025AC4213DC43
:100240000099019801F0B8FA05461C4C1C4BE41AC1
:10025000A410002C0EDC284600F04AFD144B53F885
:10026000253098470135E2E7134B53F8253098477E
:100270000135E3E7013C124B53F824309847E8E797
:10028000BABADECA0000002074000020F40300089F
:100290000C04000878563412325476987800002006
:1002A000F00200200C0400081C0400081C040008D4
:1002B0001C0400081C0400081C0400081C0400089E
:1002C0001C04000808B5FFF765FF00BEFEE71EF03E
:1002D000040F0CBFEFF30880EFF309807146414A29
:1002E00010472DE9F04182B004468846124B5E6B00
:1002F0009F6B9D6A1B6B13F0020F03D00E4BDB6AE2
:10030000002B0CDB0D4800F033FDCDF800803B46A0
:1003100032462946204600F093FD00BEFEE74BF62C
:10032000AB6100F007FE0028ECD0034B4FF0004219
:10033000DA6202B0BDE8F08100ED00E02825000897
:1003400000BEFEE71EF0040F0CBFEFF30880EFF3D2
:1003500009807146244A10472DE9F04182B00446D5
:100360008846084B5E6B9F6B9D6A074800F000FD56
:10037000CDF800803B4632462946204600F060FD1D
:1003800000BEFEE700ED00E0382500081EF0040F77
:100390000CBFEFF30880EFF309807146134A104752
:1003A0002DE9F04182B004468846084B5E6B9F6B96
:1003B0009D6A074800F0DCFCCDF800803B463246E1
:1003C0002946204600F03CFD00BEFEE700ED00E0BF
:1003D0004425000800BEFEE700BEFEE700BEFEE7C3
:1003E00070470000E302000859030008A103000859
:0403F00000BEFEE766
:1003F40018990008000000207800002018990008CF
:10040400000000100000001078000020F40200201A
:080414000000001000000010C0
:1004200010B50446074B1868074BA3FB0030800942
:1004300000F090F8002221464FF0FF3000F044F821
:10044000002010BD0C000020D34D621008B50B4BEE
:100450001A6842F400721A601A6842F480621A60E4
:100460001A6842F480721A60032000F00FF80F201F
:10047000FFF7D6FF01F0F0FA002008BD003C024073
:10048000014B1868704700BF5801002010B50446A2
:10049000C31E042B0FD80A4AD36823F4E0631B045D
:1004A0001B0C240204F4E064234343F0BF6343F4D1
:1004B0000033D36010BDA421024800F04FFCEAE7EE
:1004C00000ED00E05823000870B505460C461646BE
:1004D0000F2A25D80F2C28D81B4BDB68C3F3022327
:1004E000C3F10702042A28BF0422191D062921D9B5
:1004F000033B4FF0FF3101FA02F224EA02049C4070
:1005000001FA03F326EA03063443002D14DB240129
:10051000E4B205F1604505F5614585F8004370BD1D
:10052000BC210A4800F01AFCD4E7BD21074800F0BE
:1005300015FCD1E70023DCE705F00F052401E4B248
:10054000034B5C55EBE700BF00ED00E058230008CB
:1005500014ED00E00138B0F1807F0AD2064B5860FC
:10056000064AF02182F823100020986007221A60C2
:1005700070470120704700BF10E000E000ED00E090
:1005800010B50446042800D038B9042C0BD0094A11
:10059000136823F00403136010BD40F2B311064842
:1005A00000F0DCFBF1E7034A136843F00403136037
:1005B000F2E700BF10E000E05823000830B583B038
:1005C000044603680F2B29D8236813F0010F3DD090
:1005D0006368012B01D9052B25D1A34B9B6803F040
:1005E0000C03042B29D0A04B9B6803F00C03082BB1
:1005F0001ED022799D4B1A706368002B50D0FFF7F4
:100600003FFF0546984B1B6813F4003F1ED1FFF7D0
:1006100037FF401B6428F5D90320E3E1F521944816
:1006200000F09CFBD0E7FA21914800F097FBD4E75B
:100630008D4B5B6813F4800FDBD08B4B1B6813F47E
:10064000003F03D06368002B00F0C981236813F0DA
:10065000020F5DD0E368012B31D823691F2B34D8FA
:10066000814B9B6813F00C0F3AD07F4B9B6803F0D3
:100670000C03082B2FD0E368002B74D07D4B012294
:100680001A60FFF7FDFE0546774B1B6813F0020F5B
:100690005AD1FFF7F5FE401B0228F5D90320A1E14E
:1006A000FFF7EEFE0546704B1B6813F4003FCDD0FC
:1006B000FFF7E6FE401B6428F5D9032092E14FF4D2
:1006C00096716B4800F04AFBC7E740F22D1168486D
:1006D00000F044FBC4E7644B5B6813F4800FCAD19D
:1006E000614B1B6813F0020F04D0E368012B01D0AB
:1006F000012077E15C48036823F0F8032169F822C0
:1007000092FAA2F2B2FA82F201FA02F21343036001
:10071000236813F0080F50D06369012B35D8636943
:10072000002B38D0544B01221A60FFF7A9FE054672
:100730004D4B5B6F13F0020F3FD1FFF7A1FE401B43
:100740000228F5D903204DE14748036823F0F80358
:100750002169F82292FAA2F2B2FA82F201FA02F2C6
:1007600013430360D4E7434B00221A60FFF788FE6F
:1007700005463D4B1B6813F0020FC9D0FFF780FE02
:10078000401B0228F5D903202CE140F26D113848B6
:1007900000F0E4FAC3E7384B00221A60FFF770FE5E
:1007A0000546314B5B6F13F0020F06D0FFF768FE72
:1007B000401B0228F5D9032014E1236813F0040F2D
:1007C00060D0A368012B01D9052B1FD10023019311
:1007D000254B1A6C42F080521A641B6C03F0805354
:1007E0000193019B254A136843F480731360FFF75C
:1007F00047FE0546214B1B6813F4807F0CD1FFF7A1
:100800003FFE401B0228F5D90320EBE040F2971190
:10081000174800F0A3FAD9E7227A194B1A70A36897
:1008200083B1FFF72DFE05460F4B1B6F13F0020F30
:1008300028D1FFF725FE401B41F288339842F3D9B7
:100840000320CFE0FFF71CFE0546074B1B6F13F09C
:10085000020F17D0FFF714FE401B41F28833984275
:10086000F3D90320BEE000BF003802400238024046
:100870009C23000800004742800E47420070004061
:1008800070380240A369022B39D8A369002B00F00D
:10089000A880564A926802F00C02082A00F0A48050
:1008A000022B40F08880E36913B1B3F5800F2CD19F
:1008B000236A3F2B2FD8636A323BB3F5BF7F30D812
:1008C000A36A022B05D0042B03D0062B01D0082BE2
:1008D0002DD1E36A043B0B2B2FD8454B00221A6025
:1008E000FFF7CEFD0546414B1B6813F0007F2AD071
:1008F000FFF7C6FD401B0228F5D9032072E04FF434
:10090000E6713C4800F02AFABFE740F2D5113948B9
:1009100000F024FACCE74FF4EB71364800F01EFAF1
:10092000C9E740F2D711334800F018FAC8E74FF48E
:10093000EC71304800F012FACBE740F2D9112D48A3
:1009400000F00CFAC9E7E369226A1343616A47F6CB
:10095000C07292FAA2F2B2FA82F201FA02F21343E0
:10096000A26A5208013A4FF4403191FAA1F1B1FA6A
:1009700081F18A401343E16A4FF0706292FAA2F269
:10098000B2FA82F201FA02F21343184A5360184B8A
:1009900001221A60FFF774FD0446144B1B6813F024
:1009A000007F06D1FFF76CFD001B0228F5D903205C
:1009B00018E0002016E00E4B00221A60FFF760FDE1
:1009C00004460A4B1B6813F0007F06D0FFF758FD62
:1009D000001B0228F5D9032004E0002002E00120DA
:1009E00000E0002003B030BD0120FBE700380240EA
:1009F000600047429C230008214B9B6803F00C03D6
:100A0000042B3AD0082B01D01E4870471C4B586865
:100A100000F03F005B6813F4800F1ED01A4AB2FB4F
:100A2000F0F2174B586847F6C073184093FAA3F3D7
:100A3000B3FA83F3D84000FB02F0114B5B6803F478
:100A400040334FF4403292FAA2F2B2FA82F2D3402B
:100A500001335B00B0FBF3F070470A4AB2FBF0F2DF
:100A6000074B586847F6C073184093FAA3F3B3FADC
:100A700083F3D84000FB02F0DFE70348704700BF74
:100A8000003802400024F40040787D0170B504462F
:100A90000D460368013B0E2B11D8072D15D88C4B42
:100AA0001B6803F00F03AB4215D2EBB2884A1370F8
:100AB000136803F00F03AB420DD0012070BD40F26C
:100AC0003721844800F04AF9E7E74FF40E71814876
:100AD00000F044F9E3E7236813F0020F18D0A3688D
:100AE0007BB1802B0DD0902B0BD0A02B09D0B02B3D
:100AF00007D0C02B05D0D02B03D0E02B01D0F02B9A
:100B000037D1754A936823F0F003A1680B439360D3
:100B1000236813F0010F73D06368032B2FD8636829
:100B2000012B32D09A1E012A36D96B4A126812F074
:100B3000020F00F0CA8068498A6822F0030213435A
:100B40008B60FFF79DFC06466368012B2BD0022BC0
:100B500038D0032B45D0604B9B6813F00C0F4FD05F
:100B6000FFF78EFC801B41F288339842F3D90320B3
:100B7000A4E740F24F21574800F0F0F8C1E740F2F7
:100B80005621544800F0EAF8C9E7534A126812F4B3
:100B9000003FD0D1012091E74F4A126812F0007F48
:100BA000C9D101208AE74C4B9B6803F00C03042B4E
:100BB00026D0FFF765FC801B41F288339842F2D9BA
:100BC00003207BE7444B9B6803F00C03082B17D0F2
:100BD000FFF756FC801B41F288339842F2D903207C
:100BE0006CE73D4B9B6803F00C030C2B08D0FFF720
:100BF00047FC801B41F288339842F2D903205DE71D
:100C0000334B1B6803F00F03AB4209D9EAB2304BF8
:100C10001A701B6803F00F03AB4201D001204DE7AF
:100C2000236813F0040F14D0E3685BB1B3F5805F61
:100C300008D0B3F5A05F05D0B3F5C05F02D0B3F51F
:100C4000E05F36D1244A936823F4E053E1680B4314
:100C50009360236813F0080F15D023695BB1B3F5D7
:100C6000805F08D0B3F5A05F05D0B3F5C05F02D0B8
:100C7000B3F5E05F23D1184A936823F460432169F8
:100C800043EAC1039360FFF7B7FE134B9B6803F081
:100C9000F003F02292FAA2F2B2FA82F2D3400F4AA3
:100CA000D35CD8400E4B18600F20FFF7B9FB002033
:100CB00004E74FF42D71074800F050F8C2E740F206
:100CC000BB21044800F04AF8D5E70120F6E600BF52
:100CD000003C02409C230008003802408C2300089E
:100CE0000C000020014B1868704700BF0C0000206A
:100CF000FEE7000008B5034800F052F80120FFF7B6
:100D0000F7FF00BFCC23000808B503460C4A126861
:100D10005AB10B4A1068033323F003030344094A12
:100D2000934206D8064A136008BD054A0649116079
:100D3000EFE700F093FE0C2303604FF0FF30F3E782
:100D40007C00002000FC0020F4020020012303604E
:100D5000014B0B60704700BF0400002008B50A4635
:100D60000146024800F004F8FFF7C4FFE023000842
:100D70000FB400B583B004AB53F8042B019380216A
:100D8000064800F0A5FE002803DD0146034800F0F8
:100D900047F803B05DF804EB04B07047840000200E
:100DA00010B5044600F060FE0146204600F038F819
:100DB0000121024800F034F810BD00BFA42400084F
:100DC0002DE9F04385B004460F4643560BB10E465D
:100DD0001EE0042528462146ABBE0446384605B031
:100DE000BDE8F08314F9011B04AA1A4402F8101C90
:100DF0000133AB42F6D304AA1344002203F8102CAB
:100E00004FF00408E94640464946ABBE8046761B93
:100E1000002EE3D03546102E28BF10250023E8E72A
:100E200008B5FFF7CDFF08BD08B500F093F8024AFA
:100E3000024B9A6008BD00BF0000000800ED00E012
:100E4000F8B504460D4617461E462748FFF790FFA3
:100E500021682648FFF78CFF61682548FFF788FF67
:100E6000A1682448FFF784FFE1682348FFF780FF6B
:100E700021692248FFF77CFF61692148FFF778FF6D
:100E8000A1692048FFF774FFE1691F48FFF770FF71
:100E90001E48FFF76DFF29461D48FFF769FF1D4CEF
:100EA000E16A1D48FFF764FF216B1C48FFF760FFF4
:100EB000E16B1B48FFF75CFF15F0800F0AD115F4BA
:100EC000004F0CD11748FFF753FF06991648FFF75C
:100ED0004FFFF8BD39461548FFF74AFFEFE73146A7
:100EE0001348FFF745FFEDE70C2400081C24000819
:100EF0002C2400083C2400084C2400085C24000832
:100F00006C2400087C2400088C2400089C24000821
:100F1000A824000800ED00E0B8240008C824000858
:100F2000D82400080825000810250008E824000837
:100F3000F824000883691A888A4201D0002070478B
:100F40000268033A012A03D8023383610120704703
:100F5000002070470C4B1A6842F001021A60002111
:100F600099601A6822F0847222F480321A60074A6B
:100F70005A601A6822F480221A60D960044B4FF03C
:100F800000629A60704700BF0038024010300024B1
:100F900000ED00E0224B9B6803F00C03042B14D0FF
:100FA000082B16D01BB11F4B1F4A1A6002E01D4BC5
:100FB0001D4A1A601A4B9B68C3F303131B4AD15C8A
:100FC000184A1368CB4013607047164B184A1A60D2
:100FD000F0E7134B5A685B6803F03F0312F4800F8D
:100FE00013D0134AB2FBF3F20D4B5B68C3F38813C3
:100FF00003FB02F30A4A5268C2F301420132520073
:10100000B3FBF2F3074A1360D4E7074AB2FBF3F2EB
:10101000034B5B68C3F3881303FB02F3EAE700BFEB
:10102000003802400C0000200024F4005425000881
:1010300040787D0101290FD011B1022918D07047E5
:10104000114B9968012202FA00F001439960DA68B5
:1010500022EA0000D86070470B4B9968012202FA1F
:1010600000F021EA00019960DA681043D860704707
:10107000054A9168012303FA00F001439160D368A7
:101080001843D060704700BF003C014008B5084AD3
:10109000136843F001031360064B1A6822F00F0235
:1010A0001A601A681A6001210020FFF7C3FF08BD0B
:1010B000003C0140203801400F2848D8DFE800F00C
:1010C000080C1014181C2024282C3034383C4044C0
:1010D0001F4B43F8201070471D4B43F820107047FA
:1010E0001B4B43F820107047194B43F820107047F2
:1010F000174B43F820107047154B43F820107047EA
:10110000134B43F820107047114B43F820107047E1
:101110000F4B43F8201070470D4B43F820107047D9
:101120000B4B43F820107047094B43F820107047D1
:10113000074B43F820107047054B43F820107047C9
:10114000034B43F820107047014B43F820107047C1
:101150000401002008B5054B1A682AB104494B69FF
:1011600043F001034B61904708BD00BF040100201C
:10117000003C014008B5054B5B6803B19847044A41
:10118000536943F00203536108BD00BF040100200E
:10119000003C014008B5054B9B6803B19847044AE1
:1011A000536943F00403536108BD00BF04010020EC
:1011B000003C014008B5054BDB6803B19847044A81
:1011C000536943F00803536108BD00BF04010020C8
:1011D000003C014008B5054B1B6903B19847044A20
:1011E000536943F01003536108BD00BF04010020A0
:1011F000003C014008B5174B5B6903B19847164A9C
:10120000536943F020035361124B9B6903B1984724
:10121000114A536943F0400353610E4BDB6903B13C
:1012200098470D4A536943F080035361094B1B6A89
:1012300003B19847084A536943F480735361054BDF
:101240005B6A03B19847044A536943F400735361DE
:1012500008BD00BF04010020003C014008B51B4B45
:101260009B6A03B198471A4A536943F480635361F8
:10127000164BDB6A03B19847154A536943F4006380
:101280005361124B1B6B03B19847114A536943F4E6
:10129000805353610D4B5B6B03B198470C4A536904
:1012A00043F400535361094B9B6B03B19847084AC1
:1012B000536943F480435361044BDB6B03B198479C
:1012C000034A536943F40043536108BD04010020FD
:1012D000003C014010B4012812D018B102281DD0E2
:1012E00010BC7047144B1868490003248C4020EA56
:1012F00004001860186802FA01F101431960EFE771
:101300000E4B1868490003248C4020EA0400186042
:10131000186802FA01F101431960E1E7084B186807
:10132000490003248C4020EA04001860186802FA7F
:1013300001F101431960D3E70000024000040240BC
:1013400000080240012814D010B1022821D07047B3
:1013500012B1012A07D070471031012303FA01F1BD
:10136000144B19607047012303FA01F1114B196006
:1013700070473AB1012AEED1012303FA01F10E4B75
:10138000196070471031012303FA01F10A4B19600B
:1013900070473AB1012ADED1012303FA01F1074B6C
:1013A0001960D8E71031012303FA01F1034B1960EA
:1013B000704700BF1800024018040240180802409D
:1013C00010B4012812D018B102281DD010BC7047EB
:1013D000144B1868490003248C4020EA040018606C
:1013E000186802FA01F101431960EFE70E4B186823
:1013F000490003248C4020EA04001860186802FAAF
:1014000001F101431960E1E7084B18684900032422
:101410008C4020EA04001860186802FA01F10143C8
:101420001960D3E70C0002400C0402400C08024093
:1014300030BB10B4072914D9A1F10803DBB2072B84
:101440001CD810480468A1F108039B000F219940A3
:1014500024EA01010160046802FA03F121430160FA
:101460000CE0094B186889000F248C4020EA040026
:101470001860186802FA01F10143196010BC704746
:10148000704700BF2400024020000240034A136856
:1014900043F0BF6343F400331360704730ED00E066
:1014A00010B4430971B101290AD10D4C54F823201D
:1014B00000F01F00012101FA00F0104344F823005E
:1014C00010BC7047064C203354F8232000F01F0056
:1014D000012101FA00F0104344F82300F0E700BFB7
:1014E00000E100E0174B1A6842F001021A601A6826
:1014F00022F480321A601A6822F080721A60114B4E
:101500001B6813F0020FFAD00F4B1A6822F0010289
:101510001A601A6822F002021A601A6822F0F002B9
:101520001A601A6842F080021A601A6822F4E052C7
:101530001A601A681A601A6822F460421A601A68FF
:101540001A607047003802400838024001280BD06A
:1015500010B1022810D070470B480368012202FA2C
:1015600001F119430160704708480368012202FA3B
:1015700001F119430160704705480368012202FA2E
:1015800001F1194301607047303802404038024091
:1015900044380240064B1A6822F004021A601A68A6
:1015A00042F002021A601A6822F001021A607047C3
:1015B00010E000E0054B5860044B1B6813F4803FBB
:1015C000FAD0024B00229A60704700BF10E000E0A2
:1015D000024B58689B68C01A704700BF10E000E0DB
:1015E000014B00229A60704710E000E0024A136845
:1015F00043F001031360704710E000E0014B5860B6
:10160000704700BF10E000E0054B1860054B00225A
:101610001A70054A136843F001031360704700BF56
:10162000440100204801002010E000E008B5094B0B
:101630001B783BB9084B00225A609A601A6822F066
:1016400001021A60054B1B6803B19847024B1B68E7
:1016500008BD00BF4801002010E000E04401002068
:1016600008B5022209210020FFF734FE02220A21D8
:101670000020FFF72FFE072209210020FFF7D8FEE8
:1016800007220A210020FFF7D3FE044B42F20C028E
:10169000DA6040F241329A6008BD00BF001001409C
:1016A000064B5860054B1B6813F0400FFAD0034AF5
:1016B000136823F040031360704700BF001001401F
:1016C00070B594B000240194204B1A6C42F0805203
:1016D0001A641B6C03F080530193019B02941C4B12
:1016E0001A6842F440421A601B6803F440430293B4
:1016F000029B0123089309934FF480030F9319234E
:1017000010934FF4A8731193042612960723139392
:1017100002250E9508A8FEF751FF0F2303930495A9
:1017200005944FF4805306930794294603A8FFF7C6
:10173000ADF9FFF7D7FA074BA3FB00308009FEF79E
:1017400009FF3046FEF71CFF14B070BD00380240A0
:1017500000700040D34D621008B5FEF777FEFFF72A
:10176000AFFFFFF717FC08BD38B50E4B1B787BB1F8
:101770000D4C2578FFF72CFF0C4B43F82500FFF7A5
:101780002FFF0B48FFF73AFF23780133237038BD52
:101790000748FFF733FF0748FFF736FF014B0122E9
:1017A0001A70F4E74B0100204A010020600100207C
:1017B00040420F00F119000808B5FFF793FE002121
:1017C0000846FFF7C3FE01210020FFF7BFFE0421FA
:1017D0000220FFF7BBFE0E210220FFF7B7FE00221A
:1017E00011461046FFF776FD012200210846FFF75B
:1017F000E7FD012200211046FFF76CFD0122114692
:101800001046FFF767FD012202211046FFF762FD37
:10181000012208211046FFF75DFD01220921104633
:10182000FFF758FD012205211046FFF753FD012265
:1018300006211046FFF74EFD012207211046FFF753
:1018400049FDFFF7A7FEFFF721FE002211461046D3
:10185000FFF740FD012200210846FFF7B1FDFFF729
:1018600015FC05490020FFF727FC01210620FFF7A2
:1018700017FEFFF7F5FEFEE76917000870B505468D
:101880000E4600243CE0FFF7ABFE2A5D02F00102A9
:1018900000210120FFF756FD2A5DC2F3400201211D
:1018A0000846FFF74FFD2A5DC2F3800202210120A6
:1018B000FFF748FD2A5DC2F3C00208210120FFF7AF
:1018C00041FD2A5DC2F3001209210120FFF73AFD14
:1018D0002A5DC2F3401205210120FFF733FD2A5D86
:1018E000C2F3801206210120FFF72CFD2A5DD209E8
:1018F00007210120FFF726FD9620FFF75BFE01344C
:10190000B442C0D370BD000008B5344B1B78172B10
:101910001FD8DFE803F00C1B1F1E272B232F331EBD
:1019200037471E1E4B1E1E1E5F1E5B4F5357002067
:10193000FFF7B6FE2A4B1B785BB94FF4FC512948E0
:10194000FFF79CFF264B01221A7002E00120FFF7EF
:10195000A7FE08BD0220FFF7A3FEFAE70320FFF76A
:101960009FFEF6E70420FFF79BFEF2E70520FFF756
:1019700097FEEEE70620FFF793FEEAE70720FFF762
:101980008FFEE6E70820FFF78BFE174B1B78002B36
:10199000DFD14FF4A8411548FFF770FF124B012229
:1019A0001A70D6E70920FFF77BFED2E70A20FFF77F
:1019B00077FECEE70B20FFF773FECAE70C20FFF798
:1019C0006FFEC6E70D20FFF76BFEC2E70E20FFF7A4
:1019D00067FEBEE70F20FFF763FEBAE7490100206C
:1019E0004C010020642500084D010020E44400085B
:1019F00008B5002308E0012202FA03F11248027838
:101A00000A4302700133DBB2072B12D803F1110233
:101A10000E4951F82220A2F57A72B2F5FA7FEAD87F
:101A2000012202FA03F10848027822EA0102027058
:101A3000E8E70023064A1370064A1370FFF7D6FD45
:101A4000FFF762FF08BD00BF4901002060010020D0
:101A50004A0100204B01002070470000014B18682C
:101A6000704700BF10000020034613F8012B002A26
:101A7000FBD1181A0138704730B5141E05469BB0CB
:101A8000184605DA8B232B604FF0FF301BB030BDBA
:101A90004FF40273ADF80C3014BF04F1FF3323464A
:101AA000029305934FF6FF7300910491ADF80E3049
:101AB00002461E9B6946284600F072F8431CBCBFD4
:101AC0008B232B60002CE1D0009B00221A70DDE7F5
:101AD00007B5009313460A46014603480068FFF71E
:101AE000CBFF03B05DF804FB100000202DE9F047A8
:101AF0008E689E4282460C469046994637D88A891F
:101B000012F4906F31D0256809696F1A6569022354
:101B100005EB450595FBF3F509F101033B449D42B7
:101B200038BF1D46530530D5294600F07BFB0646DD
:101B300050B90C23CAF80030A38943F04003A381B5
:101B40004FF0FF30BDE8F0873A46216900F0F8FA1F
:101B5000A38923F4906343F08003A3812661656128
:101B60003E44ED1B2660A5604E464E4500D94E46CC
:101B700032464146206800F0EEFAA3689B1BA36042
:101B800023681E4426600020DCE72A4600F0A4FB00
:101B900006460028E2D12169504600F0F5FAC8E770
:101BA0002DE9F04F9DB0804603938B891D060C46AE
:101BB00016460FD50B696BB9402100F033FB20604E
:101BC000206128B90C23C8F800304FF0FF30C7E07F
:101BD000402363610023099320238DF829303023AB
:101BE0008DF82A304FF0010B37463D4615F8013B82
:101BF0000BB1252B3ED1B7EB060A0BD0534632462C
:101C000021464046FFF772FF013000F0A480099B97
:101C1000534409933B78002B00F09D8000234FF044
:101C2000FF32CDE90523049307938DF853301A93BF
:101C30002F46052217F8011B4F4800F031FA049B8C
:101C4000D0B9D90644BF20228DF853201A0744BFCB
:101C50002B228DF853202A782A2A15D0079A2F464E
:101C600000200A25394611F8013B303B092B4DD99C
:101C7000B8B10FE02F46B8E73F4A801A0BFA00F0E0
:101C8000184304903D46D3E7039A111D126803914F
:101C9000002A01DB079204E0524243F0020307925C
:101CA00004933B782E2B0CD17B782A2B33D1039BCA
:101CB0001A1D1B680392002BB8BF4FF0FF33023789
:101CC00005932E4D39780322284600F0E9F938B102
:101CD0004023401B03FA00F0049B034301370493A5
:101CE000397827488DF8281006227E1C00F0D8F994
:101CF000002838D0234B13BB039B073323F0070383
:101D000008330393099B4B4409936DE705FB0232AB
:101D100001200F46A6E700230137059319460A253F
:101D2000384610F8012B303A092A03D9002BC8D0C5
:101D30000591C6E705FB012101230746F0E703AB48
:101D400000932246104B04A94046AFF30080B0F147
:101D5000FF3F8146D6D1A3895B063FF536AF099890
:101D60001DB0BDE8F08F03AB00932246064B04A9DB
:101D7000404600F081F8EAE7E4980008EA98000895
:101D8000EE98000800000000ED1A00082DE9F04769
:101D900091461F468A680B69DDF820809342B8BFE0
:101DA0001346C9F8003091F8432006460C4612B19C
:101DB0000133C9F800302368990642BFD9F80030D2
:101DC0000233C9F80030256815F0060507D104F183
:101DD000190AE368D9F800209B1AAB4228DC94F872
:101DE00043302268003318BF012392062DD404F13A
:101DF000430239463046C047013020D02368E568A9
:101E0000D9F8002003F00603042B08BFAD1AA3681D
:101E100022690CBF25EAE57500259342C4BF9B1AD1
:101E2000ED184FF000091A344D451AD1002008E092
:101E30000123524639463046C047013003D14FF0A6
:101E4000FF30BDE8F0870135C3E7E1185A1C3020A8
:101E500081F84300224494F8451082F8431002337D
:101E6000C5E70123224639463046C0470130E6D057
:101E700009F10109D8E700002DE9F04301F1430C15
:101E80000C46097E85B06E291746064698460C9A80
:101E900000F0B38022D8632936D00AD8002900F098
:101EA000B980582900F0838004F1420584F842107B
:101EB00032E0642901D06929F6D12068136805064B
:101EC00003F104012AD51B681160002B03DA2D22CF
:101ED0005B4284F843206F480A2239E0732900F0FE
:101EE0009D8008D86F2920D07029DDD1236843F068
:101EF0002003236003E0752917D07829D4D17823F3
:101F000084F84530644855E01368191D1B6811605A
:101F100004F1420584F8423001238CE01B68116013
:101F200010F0400F18BF1BB2CFE713682568181DCB
:101F30001060280601D51B6802E06806FBD51B88E7
:101F400054486F2914BF0A220822002184F8431044
:101F50006568A560002DC0F29580216821F004011C
:101F60002160002B3DD1002D40F08E806546082A6F
:101F70000BD12368DB0708D5236962689A42DEBF6C
:101F8000302305F8013C05F1FF35ACEB0503236177
:101F9000CDF800803B4603AA21463046FFF7F6FE07
:101FA00001304DD14FF0FF3005B0BDE8F083394826
:101FB00084F84510136821681D1D1B6815600A060A
:101FC0000BD5CA0744BF41F0200121601BB922682C
:101FD00022F0200222601022B7E74D0648BF9BB2D4
:101FE000EFE76546B3FBF2F102FB1133C35C05F882
:101FF000013D0B460029F5D1B9E7136825686169F1
:10200000181D106028061B6801D5196002E06A06D9
:10201000FBD51980002323616546B9E71368191DB4
:1020200011601D6862680021284600F039F808B187
:10203000401B606063682361002384F84330A7E796
:1020400023692A4639463046C0470130AAD0236862
:102050009B0713D4E068039B9842B8BF1846A3E7D8
:1020600001234A4639463046C04701309AD00135EF
:10207000E368039A9B1AAB42F2DCEBE7002504F11C
:102080001909F5E7002BACD1037884F8423004F14C
:1020900042056CE7F598000806990008000000006A
:1020A00001F0FF01102A2BDB10F0070F08D010F809
:1020B000013B013A8B422DD010F0070F42B3F6D10D
:1020C000F0B441EA012141EA014122F007047FF026
:1020D00000070023F0E80256083C85EA010586EA7D
:1020E000010685FA47F5A3FA87F586FA47F6A5FAB9
:1020F00087F68EB9EED1F0BC01F0FF0102F00702C5
:1021000032B110F8013B013A83EA010313B1F8D16F
:102110000020704701387047002D06BF3546033850
:10212000073815F0010F07D1013015F4807F02BF89
:10213000013015F4C03F0130F0BC0138704700BFDA
:1021400010B5431E0A44914200D110BD11F8014B55
:1021500003F8014FF7E7884210B501EB020307D8F7
:10216000421E99420AD011F8014B02F8014FF8E7DC
:102170008342F5D98118D21AD34200D110BD13F889
:10218000014D01F8014DF7E738B50546002945D066
:1021900051F8043C0C1F002BB8BFE41800F0D2F833
:1021A0001F4A1368104633B9636014602846BDE8BF
:1021B000384000F0C8B8A3420CD921686218934295
:1021C00004BF1A685B68636004BF52182260046031
:1021D000ECE713465A680AB1A242FAD919685818AE
:1021E000A0420BD120680144581882421960DDD109
:1021F000106852685A6001441960D7E702D90C236D
:102200002B60D3E7206821188A4204BF1168526806
:10221000626004BF091821605C60C7E738BD00BF79
:102220005001002070B5CD1C25F0030508350C2D9C
:1022300038BF0C25002D064601DBA94203D90C232B
:102240003360002070BD00F07DF8214A14682146FB
:1022500091B9204C23681BB9304600F063F8206028
:102260002946304600F05EF8431C24D10C2333602D
:10227000304600F068F8E4E70B685B1B18D40B2BC2
:102280000FD90B60CD50CC18304600F05CF804F14B
:102290000B00231D20F00700C31AD3D05A42E2508E
:1022A000D0E78C424B6816BF636013600C46EBE7C7
:1022B0000C464968CCE7C41C24F00304A04205D0B6
:1022C000211A304600F02EF80130CFD02560DBE730
:1022D0005001002054010020F8B5074614460E4670
:1022E00021B91146BDE8F840FFF79CBF22B9FFF7BE
:1022F0004BFF25462846F8BD00F026F8A0420FD235
:1023000021463846FFF78EFF05460028F2D03146B9
:102310002246FFF715FF31463846FFF735FFE9E75C
:102320003546E7E738B5064C0023054608462360E6
:10233000FEF7EAFC431C02D1236803B12B6038BDD1
:102340005C0100207047704751F8043C181F002BB7
:10235000BCBF0B58C01870472E2E2F73797374654D
:102360006D2F7372632F73746D333266342D686111
:102370006C2F73746D3332663478785F68616C5F8C
:10238000636F727465782E63000000000000000027
:102390000102030401020304060708092E2E2F730D
:1023A000797374656D2F7372632F73746D33326636
:1023B000342D68616C2F73746D3332663478785FB6
:1023C00068616C5F7263632E6300000061626F720C
:1023D0007428292C2065786974696E672E2E2E006A
:1023E0006173736572745F706172616D2829206614
:1023F00061696C65643A2066696C652022257322E8
:102400002C206C696E652025640A0000537461639A
:102410006B206672616D653A0A0000002052302020
:102420003D2020253038580A00000000205231207D
:102430003D2020253038580A00000000205232206C
:102440003D2020253038580A00000000205233205B
:102450003D2020253038580A00000000205231323B
:10246000203D20253038580A00000000204C522022
:102470003D2020253038580A00000000205043201D
:102480003D2020253038580A0000000020505352CB
:10249000203D20253038580A000000004653522FB6
:1024A0004641523A0A0000002043465352203D2044
:1024B00020253038580A00002048465352203D203D
:1024C00020253038580A00002044465352203D2031
:1024D00020253038580A00002041465352203D2024
:1024E00020253038580A0000204D4D464152203DED
:1024F00020253038580A00002042464152203D2015
:1025000020253038580A00004D6973630A00000026
:10251000204C522F4558435F52455455524E3D2052
:10252000253038580A0000005B48617264466175C6
:102530006C745D0A000000005B4275734661756C47
:10254000745D0A005B55736167654661756C745D07
:102550000A00000000000000000000000102030467
:1025600006070809807F807F807F807F807F807F53
:10257000807F80807F80807F807F80807F807F8061
:102580007F807F80807F807F80807F807F807F8052
:102590007F807F807F80807F807F80807F807F8042
:1025A000807F807F807F80807F807F807F80807F32
:1025B0008080808080807F807F80808080807F801E
:1025C0007F807F7F807F80808080807F807F807F12
:1025D00080808080807F7F807F807F808080807F00
:1025E000807F80807F807F807F807F807F807F80F2
:1025F0007F807F808080807F807F807F80807F80E1
:102600007F807F807F7F807F807F807F80807F80D2
:102610007F807F807F8080808080807F807F8080BF
:102620007F807F80807F807F807F807F80807F80B1
:102630007F807F80807F807F807F807F80807F80A1
:10264000807F807F807F807F807F807F807F807F92
:10265000807F80807F807F807F807F80807F807F81
:1026600080807F807F80807F80807F80807F807F70
:10267000807F80807F807F807F807F807F807F8061
:102680007F807F807F807F807F80807F807F807F52
:10269000807F80807F807F80807F807F8080807F40
:1026A000807F807F807F807F807F807F807F807F32
:1026B000807F807F80807F8080807F807F80807F20
:1026C000807F807F8080808080807F807F80807F0F
:1026D000807F807F807F7F7F7F7F807F807F7F7F05
:1026E0007F7F7F7F7F7F7F80808080807F808080F2
:1026F0007F8080807F807F7F7F7F7F7F7F7F7F7FE6
:102700007F7F807F7F7F7F7F7F7F7F7F807F7F7FD7
:102710007F7F7F7F7F7F807F8080808080808080C0
:102720008080808080807F7F7F7F808080808080AD
:10273000807F7F7F7F7F7F7F7F8080808080807FA2
:102740007F7F7F7F7F808080808080807F7F7F7F92
:102750007F7F80807F7F7F8080808080808080807E
:102760007F7F7F80808080807F7F7E7E7F807F7F75
:102770007F7F7D7B7A7C8081828888858481807C54
:10278000797C8080828787868381807D797A7B7C53
:102790007E8082827F7D7C7A7778797B7D7F818164
:1027A00082807F7F7F7F80818383807E7D7B7A7B39
:1027B0007C7E7F7D7C7B766F72798A878899968D07
:1027C0008483817B76818D8F93999B91867D7A76A8
:1027D000727982888B8B8A857A706B69696C737C5D
:1027E00083898988857F787575797A7E8586847FE7
:1027F0008078716D6A625C596273A4A18EB4A28CF8
:10280000716B70676882A6A8ACADAE99807476745F
:102810006B7888928D8C8D85716463605E657D8B2D
:102820008F939289766E6C6E72788386857E7E74C5
:102830006F605746564577CA83ACCAAB8A71716CD4
:10284000626090A2B0B0B9C0A1897F7B67636C80E1
:102850008484919387766F64625770797B89918EB7
:1028600081807A76707176736D6E6F6D5F6054588B
:1028700046A8AB76CDBFA1828D7E706977999CA367
:10288000B1C8A99D9A887965686A666D7A868282E0
:10289000807C72686A6C696E7D7F837D84857875C3
:1028A000736D5D635D625452477EAD73AFDDAE8A7A
:1028B000AC9D75747985858B9DB9ACA6B3AB8B80C7
:1028C0007868595762686C778A84808983707072DF
:1028D0006A686E747675747B736E6C70645A4F564A
:1028E000567AAA7DAEDCAB8FC0AA70878F7B758CC1
:1028F000929C9FA5B2AE92918E6C59625C4D6071B4
:10290000717987898683837A716C706A676A6C6A69
:102910006B6E6F6D686668677A9F7F94C2A48DB88E
:10292000B18092A28377978B7E8E9B8F929B908BA8
:10293000857A75706468696365716E6E797A787B83
:102940007E7B7B787776736F6F6F67666A6A637C6E
:102950008D7E91AC9C98B4AC96A3A88E8C97877D05
:1029600088887C84898180847E7878756E6D6E6BB2
:102970006B6D6B6C7070717577777B7D7D7F807F01
:102980007F7F7B7B7C7A7A7E7F7F8387898B919424
:10299000929598949294908C8B8A868382807D7C89
:1029A0007A7877747473706F706E6E7172717377FA
:1029B00076777B7C7C7F807F80817F808180818235
:1029C00082838586888A8B8D90909091908F8F8E50
:1029D0008B8A888583817E7C7A7876747372717134
:1029E0007071717273747677797A7C7E7F80818260
:1029F0008282838383838383838484848687878896
:102A00008A8A8B8C8C8C8C8C8B8988868482807E45
:102A10007B79787675747373737373747475767762
:102A200078797A7B7C7D7E7F8081818282838384BA
:102A30008484848484848484858586878788898A3D
:102A40008A8A898987868482807E7C7A787776757F
:102A50007474747474757576767778797A7B7C7D06
:102A60007E7E7F8081818283848484848484848345
:102A70008383838383848485868687878787868606
:102A8000848382817F7E7D7C7B7A79797878777781
:102A900077777777787878797A7A7B7C7D7E7F8094
:102AA00081828283838484848483838282828282FB
:102AB00082828282838383838384848483838382E8
:102AC0008281807F7E7E7D7D7C7B7B7B7A7A7A7A39
:102AD00079797A79797B79777D807C7C7F807E803B
:102AE00083848384848283848585828183838283B3
:102AF00083828384848281828382828283818082B2
:102B000083807E80807E7D7D7E7D7C7D7D7C7C7CE7
:102B10007C7B7B7B7A7B7C7B7C7D7E7D7E80807FEB
:102B2000818181828181828181828280818282828F
:102B3000828382828382828281818281818181807B
:102B400081807F7F807F7F7E7E7F7D7D7C7D7E7BA1
:102B50007C7D7C7C7D7C7C7D7E7E7E7E7E7F7F7F9F
:102B60007E80807F8081808181808181818082815F
:102B700082818281818181818181808182807F8146
:102B800080807F807F7F807F7E7E7F7E7D7E7E7E59
:102B90007D7D7D7E7D7D7E7D7E7E7E7E7E7F7E7E5A
:102BA0007F807F7F80817F7F808280808281818023
:102BB000818181808081818080828180808081800C
:102BC000808081807E80807F7F7F7F7F7F7F7F7E10
:102BD0007E7F7E7E7F7F7E7F7F7E7F7E7F7F7F800A
:102BE0007F7F7F807F7F8081807F8181807F8181E7
:102BF000807F81828080818280808181817F8181CC
:102C0000807F8080807F7F8080807F7F7F807F7ECD
:102C10007F807E7E7F7F7F7E7F7F7F7D7E7F7F7DCB
:102C20007F7F7F7F7F807F7F7F80807F8081807FAD
:102C300081818081818181808081807F8181807F8D
:102C400081807F7E80807F7F7F817E7E7F7F7D7E93
:102C50007F7D7D7E7E7D7C7E7F7D7C7E7E7C7C7E9E
:102C60007E7D7D7D7E7E7F7F7E8080807F80828175
:102C70008182848281848383848384848383848324
:102C800083838383838283818180807F7E7E7D7B3B
:102C90007B7A7A797979797978787A79797B7B7C9A
:102CA0007C7C7E7E7E808180828483838584858512
:102CB00085868786858585878785868A88888A8AA6
:102CC00088878584847F7C7D7A767575747371724C
:102CD00075727275767677787A7A7A7C7D7B7C7E6F
:102CE0007F80818282858585858687878787888999
:102CF0008A89898C908F909595918E8E8D88817E12
:102D00007D77716F6F6D6B6B6E6F6F7172747475B1
:102D100076797877787979797B7C808081838686EB
:102D2000868686898887888A88898A8B8F919498F5
:102D30009C9A9695959086827F776F6B696866649A
:102D4000686E6E6F74777778787A7A77757677753C
:102D500075777B7C7E81848686888788888888874B
:102D6000888989888D9093979CA09F97979A8F8345
:102D7000817C736B646465615F676C6D7074797B73
:102D800079787B7A76747474747376797B7D8183B9
:102D90008688888989898989878989898A8C8F9594
:102DA000999DA3A09B9C9A9088827B756C646463B8
:102DB0005F60656A6D6F72787A78797B7A787675FC
:102DC000767574767A7C7D7F828586868788898809
:102DD000888888888789898B8C9195999A97979903
:102DE000948D8A858079726D6C696666696B6D6F8A
:102DF000717576777879797A78777879797A7C7D50
:102E0000808182848686868787868684848484847B
:102E1000848586888A8D8F9191919292918D8B87EE
:102E2000827D797573706E6C6D6D6D6E6F7173747C
:102E3000757677787878797A7B7C7E8081838485D3
:102E40008787878686848483828282828283838541
:102E500086898B8D8F8F8F90918F8C8986837F7BD6
:102E6000777573706F6F6F7070717274747576763A
:102E7000777778797B7B7D7F818284868788888756
:102E80008685848382818181818182838586898B05
:102E90008D8E8F909293918E8C88847F7B777471C6
:102EA0006F6E6D6E6E6F7072737374757576777802
:102EB000797A7C7E808283858787888687868483EB
:102EC00083828180818181828287878A8D9091929D
:102ED00093959693908C88827C76736F6C696A6AFE
:102EE0006A6B6E70717374757575767778797B7CA3
:102EF0007E8082848687898888868683848381828F
:102F0000828181848286898C8E9394969798999AEF
:102F1000988F8B867F716E6D665F636565666A6F7D
:102F200072727278777374787475797A7A7F818324
:102F3000888A8A8E8C8889888383847F80807F8139
:102F400085858A9093979B9FA0A1A2A29E978A862F
:102F5000796C67605B5A5D5C64656C7072737877DE
:102F60007276737070737176787D8186888F8F8F9B
:102F7000918E8785897D7D827B77818080898F9303
:102F80009A9DA1A6A3A6A8A19C958A7974715D5962
:102F9000625B546567636E757074777371706F6F81
:102FA0006E7176767C83858990929294928C8985D5
:102FB000807D7D79797B7B8083889096999FA2A282
:102FC000A5A6A3A09C908B7D7373625D655C56671C
:102FD00064606E716A71766E70746F6D7472747AFB
:102FE0007E82868A8E909194918C8A857E7E7C7872
:102FF000797B797C82858A9196999DA0A0A2A3A1D4
:103000009D969288797C706267645661675B667092
:103010006569766B6D77716D7774727C7F7E868A59
:10302000878E918E91928A89867F7E7F7A7A7C7A4A
:103030007B8183878E9194989A9B9F9F9E9E979267
:103040008C827E776C69675D5F635F616965666DC1
:103050006C6C7473707677757D81808689878B8FB1
:103060008C8F908B89898281827E7D7F7C7B7F8122
:1030700083898C8D929395999B9B9C9A95918B8437
:103080007F78706B656161605F62626265686A6FBC
:1030900071737576787C8082858787898B8C8E8F1B
:1030A0008E8C8A8785848381807E7C7D7E808386EA
:1030B000888B8E9195999B9D9D9B97928D88817908
:1030C000716A6461605E5E605F6063666A6F7172A0
:1030D0007576797E81848687888B8D8E90908E8D93
:1030E0008A88868582807E7C7B7B7D7F8284878ABE
:1030F0008E93979A9D9E9D9C98938E8880777068FA
:1031000062615F5D5D5E5D5F63666A6E707274775B
:103110007B7F828588898A8D8F9092918E8D8A8718
:103120008684817F7D7A7A7B7C7E8184878B8F9475
:10313000989B9D9E9E9D99938F887F777068636111
:103140005E5C5C5C5C5E62656A6E707274777C80EB
:103150008386898A8B8E8F9192918F8C8A878684C1
:10316000817F7D7B7A7B7C7F8184878B8F93989B0B
:103170009D9E9E9D9A95908B827A736B6562605D31
:103180005C5C5B5D6063676B6E7072767A7E828575
:1031900088898A8D8F9091908F8C8A88868482808E
:1031A0007D7B7A7B7C7E808385898C9095989B9DA6
:1031B0009E9E9C9995918A827B746C6663605D5C2F
:1031C0005B5A5D5F63676A6D7073767B7F83868809
:1031D0008A8B8D8E8F908F8D8B8987858382807E61
:1031E0007C7B7B7C7D7F818386898C90939698996C
:1031F0009A9A9896938E89837C756F6A6663605FEE
:103200005D5D5F6164686C6E7275787C80838688B2
:10321000898B8C8D8E8E8D8B898886848381807E30
:103220007D7C7C7C7D7E80818386898C8E9193954C
:103230009697979593918D89857F79746E6A676467
:10324000626161616365686B6F7175787B7F828590
:10325000878A8B8C8E8E8E8E8C8A898785838280DE
:103260007E7D7C7C7C7C7C7D7E7F818385888A8C56
:103270008F909192929291908D8B8884807C7873BC
:10328000706C69676564646566696C6E7175787B7E
:103290007F828487898A8C8D8D8E8D8C8B898886A0
:1032A0008482817F7E7D7C7C7B7C7C7C7D7D7E803E
:1032B0008183858688898A8B8C8D8D8D8C8B8A887D
:1032C0008684827F7C79767472706E6E6D6D6E6F9F
:1032D0007071737577797A7C7D7F81838586878726
:1032E0008888898988888685848383828281807F93
:1032F0007E7D7D7D7D7D7D7D7D7E7F7F80818182E8
:10330000828384858686878787878786868583816B
:10331000807E7D7C7A7A7977757674747974747925
:1033200075787B777E7D797F7D81827F84818287BE
:103330008285878286858385848182817F817F7E65
:103340007F7E7E80807F8181828384838485848860
:10335000878489858487848285817F817D7E7C7B4B
:103360007B797978777778777777777677777779E2
:10337000797B7C7D8080818485858887878785852A
:10338000848281807E7D7D7B7B7B7B7C7E7D7E835A
:1033900080838785898A8A8C8C8B8C8B8A898685A9
:1033A00083817F7E7C7B7A7978777876777775757D
:1033B0007471706E6B6B726B7079727A8281858DAD
:1033C0008B8C908F8A8D8982827E787776727376E5
:1033D00076787E8082898A8A908F8E8F8F8E8E8F6C
:1033E0008E8E908E8D8E8B888784807E7D79787787
:1033F0007474737270706B69636262696368796B0D
:103400007C85838994929297948F8B8C7F7D7C733B
:103410006E736E6E77787B8289888C918D8D908BA0
:103420008A8B8A898D8F8F93959393938D8B8883C5
:103430007D7B797474747171746D6E6D65645D5F9C
:103440006B5A6A7A687E87848A96969195988A875D
:103450008B7B7879736D727271787E7F838A8989AC
:103460008C8B8689878488878A8E909598999A987C
:1034700095918B87817D797775767476777575757B
:10348000706C6960565F65526D766B818C888F9C1D
:1034900097949695868683787674726F7275757B2D
:1034A00081808687878785858481838484888C91C1
:1034B00094989D9C9B9C96908C867F7C7A7676785F
:1034C00077787C787878736E6B6358546357597942
:1034D0006D768D8B8D999A9592948A808578757882
:1034E00072747574797B7D82838484858480828202
:1034F0007D8285838A8F92949A9D999B9A92908CD3
:1035000083807D797879797A7B7C7A7A78736F6B2E
:10351000625B545960567274758A8B919595959437
:103520008A8C837C7A787673787776787D7A7E82D7
:10353000818082817F7F817F818584898E9096972B
:103540009A9B999893918A87817E7B7A797A7B7C02
:103550007C7C7C7877726D6760585B546A65698A99
:103560007C8499918B9B918A89887D778076757B05
:103570007A757C7B7A7D7F7E7E807E7D7E807E807C
:103580008484878C8D9396979A999896918D898546
:103590007F7F7D7A7C7D7B7E7D7C7B7875716C64A2
:1035A0005F5B595C6D6374897A8A968D8C988D8681
:1035B000888579798075797D7B767D7C787C7E7C49
:1035C0007B807C7C7F817F838686898C9191969895
:1035D00098979895908E898581807C7B7D7C7B7D7A
:1035E0007B7B7A7773706B65605F5861725E7E86F5
:1035F000778D93878D978A878987787F81777B807E
:1036000077767E77787D7C7A7D7F7C7E827F8285EF
:1036100084868B8A9092949897979895908F8A85B4
:1036200082817C7C7D7C7B7D7B7B7A7874716C660F
:10363000625F5A606F617C84788B91888C978989EE
:1036400089867B8081787D8078777D76787C7B79B0
:103650007C7D7B7E7F8081848485898B8D9293960F
:1036600098979697938F8E8883827F7C7D7D7C7CD4
:103670007D7A797975716E6863605D5A6470677E72
:10368000887B8B95888A9888848B837A81827A7DDF
:103690007E79767A7976797B78797D7D7D81828174
:1036A000848586898B909194979997999892928E18
:1036B0008885837E7E7E7C7C7C7A79787574706C5C
:1036C00067625F5E5B62736E768C83829393879191
:1036D00093838587807E81807D7C78797775777903
:1036E00077777C7B7B7E808180828386878B8E91BF
:1036F00094969B9A9A9A97938F8C878481807F7CEB
:103700007C7C7B78777673706C67635E5B5C6168EA
:103710006F777F83868D8F91918F8B8A8883807F4F
:103720007F7E7B7977777776757678797A7A7C7D04
:103730007F8081828587898A8D8F939799999998BF
:103740009695928D8884807F7D7A7876747475756D
:10375000747472706F6C6968686B6D6E7175767A6F
:103760008186888C8E8C8C8E8D8C8C88827F7D7AE5
:1037700079797774737273767878797A7B7D8184BE
:10378000878A8B8D909395979897969593918F8C28
:10379000898684817F7D7B797776747472706F6C93
:1037A0006967686A6B6B6D6F71767C808387898AC5
:1037B0008C90908F8F8C888684827F7C78757372D2
:1037C00072727372737476797C7F828487898D902C
:1037D00093959797979798979593908C8A878482DB
:1037E000807D7B797877767473716E6B68676768B4
:1037F00069696B6D70767C7F8286888A8D909090E7
:103800008F8C89888683807C7875737271717070F3
:1038100070717376797B7E8083868A8D909395977D
:1038200099999A9A989694918E8B888582807D7CBE
:103830007A79787776757472706D6A686869696983
:103840006B6E70757B7E8286888A8D8F8E8F8F8C53
:103850008A898683817E7A787573727170707070D0
:10386000717375777A7D8084878A8D909396989905
:103870009A9A9A999795928F8C898683817F7D7B7E
:103880007A79787877777573716F6C6A696A6A6A22
:103890006B6E71757A7E818588898C8E8E8E8E8C0A
:1038A0008A898684817F7B7977747371706F6F6F7B
:1038B00070717274777A7D8185888B8E91949699D8
:1038C0009A9B9B9B99979693918D8A8684817F7D05
:1038D0007B797878777777767573716E6C6B6A6AB7
:1038E0006B6B6B6E72757A7E818487898B8D8E8E01
:1038F0008E8C8A898684827F7C79767472716F6EF1
:103900006E6E6F70727476797C8084878B8E9193E3
:1039100096989A9B9B9A99989694918E8A8784817F
:103920007E7C7A7877767676777776767472706F33
:103930006E6D6D6D6C6E7072767A7D7F8284878914
:103940008B8C8D8D8C8B89878583807E7B7876753B
:103950007371706F6E6F6F70727475787B7E818417
:10396000878A8D8F92949597989898989795949226
:103970008F8D8A8784817E7C7A797877777677775E
:10398000787978777675737270706F6E6E6F727506
:10399000787B7D80838587888A8A8A8988888685DE
:1039A0008482807E7C7A7978767473727171717298
:1039B00073747577797C7E818486898B8D8F9193E2
:1039C0009494959595949393918F8C898785827F14
:1039D0007D7B79787777787979797A7B7A7A797853
:1039E0007776747373727273747577787B7D7F806A
:1039F000818384848586858585848584838282818C
:103A000080807F7E7B7A7878777776767574747528
:103A100077797C7E8183858688898A8B8B8C8F9051
:103A2000939596979693918E8985817D7B7876780C
:103A30007878797B7D7E7D7D7F7D7B7877757472EC
:103A40007375767777787A7B7B7E7E7C7B7B7C7DDB
:103A50007D7E80828283858685818080807D7D7E5B
:103A6000807E7C7B7B7A777676767574767A7B7DC2
:103A70007E8182828283848484868B8E92989C9DB0
:103A80009D9B98938C86827D7978797D7F818587CF
:103A900085827F7B7672727475777A7E807F7D7C7B
:103AA0007A777471716E6B737F8082868881787685
:103AB0007876757A818585878B8A8380807E7B7B0B
:103AC0007F84848282807C7675767573767A7C7C3E
:103AD0007D807F7D7D7E7E7F818588898B8F9091A3
:103AE000929393918F8F8F8D8D8D8B878480807E25
:103AF0007D7E7E7D7C7B7A797878797A7B7C7C7C14
:103B00007B7977767575767778797877797B807F2A
:103B10007B7D7B777777777C7D80848383827F7ED4
:103B20007D7D7F80828585848482807D787C7C7A9F
:103B3000808283837F7D7D7876797A7D7E8185869C
:103B4000858687868483848788898C908E8B8B8AF0
:103B5000898685898A878484837E7C7D7E7E7B7D41
:103B60007E7C797A797A7A7A7E7F7F807E7B7A769C
:103B7000757374797A7D7E7E7C7A797878787A7BB1
:103B80007C7D7F7F7F7E7E7E7F817F818281818140
:103B90007E7F8886848683817E7A7D81818084840D
:103BA000837E7A7A7B7A7A7F8182807F7E7C7B7942
:103BB0007B7D7E7F818486878585858282838486DE
:103BC0008989898988888685848585858585838195
:103BD0007E7C7C7C7C7D7E7E7E7C7B7A79797B7F23
:103BE000838280807D7B7A797B7C7C7D7E7F807FF9
:103BF0007E7D7C7A7A7B7C7E7F7F807F7F7E7D7EF0
:103C0000808081828283807E7F8282828589847E99
:103C10007D7B7C7F7E828683807D787878777C80D0
:103C2000807F7E7B7A7975777B7D818282828280BC
:103C3000808081848585858582807F808386878753
:103C40008684817F7E7F8282838382807E7C7E8168
:103C500081808182817F7E7F808081828281807E5F
:103C60007E7E7F808081817F7F807E7E7F7F80805F
:103C70007E7D7D7D7D7D7D7C7E7E7D7E7C7B7C7C76
:103C80007E7F7C7C7D7E8286848080807F807F8238
:103C90008587868383807F7F7F81848484827F7E03
:103CA0007D7C7D7F8080807E7D7B79797B7E7E7D43
:103CB0007C7C7C7A7A7D7F8283807F7E7D7C7B7D2D
:103CC000818383818080807F7E7E8081817F8081EF
:103CD00080807F7F808182828181828181828386D0
:103CE00085817F7F807F7F7F818484817F7F7E7FCE
:103CF000807F838481807E7E808181828381807FBA
:103D00007D7F807F7F8080817E7B7C7D7F7F7D7CCF
:103D10007C7D7D7C7C7C7F81807F7E7D7E7E7E7FC6
:103D2000808182828080818182818182838382817D
:103D3000818283838180808081807F7F8080807E7C
:103D40007D7D7E7E7E7E7F7F7E7E7D7C7D7C7D7E9A
:103D50007D7E7E7E7E7E7E7F7F7E7E7D7D7F7F7F81
:103D60007F808081807F7E7E7F8080807F7F7F805C
:103D70007F7F8080807F7F8081818080808384843A
:103D800083817F808282818081858784817B7C7F23
:103D900081848381817F7F7E7C7D7F818383807E20
:103DA0007E7E808080818181817E7D7D7E8081811B
:103DB0007F7F7F7F7F7F7F808080807F7F7F807F0E
:103DC0007F8080818181807F7F7F7F7F80808080F6
:103DD0007F7E7E7E7E7E7D7D7E7E7E7D7C7C7D7D0B
:103DE0007D7D7D7E7E7F7E7D7D7D7E7F7F7E7E7FF5
:103DF0007F80808080808180807F7F8182828180BF
:103E000080818281817F7F808081828181818180A8
:103E10007F7E7F8081828181808080807F808081A1
:103E200081807F7F7E7F8282838380807E7F81808E
:103E30007F7F80828483807D7A7B7E808281808088
:103E40008080807F7D7E808283817F7E7E80818175
:103E500081808080807F7F7E7E7F80807F7E7E7F6E
:103E6000808281817F7F7F7F7F7F7F7F7F7F7E7D5D
:103E70007D7D7E7E7F7E7E7D7D7D7E7E7E7E7F7F64
:103E80007F7E7E7E7F818281807F7F808282828131
:103E900081808080807F7F8080818181807F7E7F24
:103EA0007F7F80808080807F7E7D7D7E7F80807F21
:103EB0007E7D7E7F808080808181807F7E7E7F810D
:103EC000838382818080818281807F7F81838483DC
:103ED000817E7C7D7F8081808080808181818181E5
:103EE00081828282828181818282828281807F7FBF
:103EF0007F807F7E7D7C7C7D7E7E7E7E7E7E7E7DE5
:103F00007B7B7C7E80807F7D7B7A7B7C7D7E7E7EE2
:103F10007E7E7D7C7B7B7C7E7F7F7F7E7E7D7E7FC9
:103F20008081818181828282828282838282818178
:103F30008182828282828181808080808080818172
:103F40008181807F7E7E7F7F7F7F7F7F7F8080807B
:103F50007F7F7F7F808181807E7E7F808283838060
:103F60007E7C7C7D808182807F7D7C7C7D7D7E7F70
:103F70007F80818282828282828383838383838320
:103F800083838382818180808080807F7F7F7F7F29
:103F900080807F7F7F7F80807F7E7D7D7D7E7F7F35
:103FA0007F7E7D7D7D7E7F7E7D7B7B7B7D7F7F7F3A
:103FB0007D7B7A7A7C7E7F807F7F7E7E7F7F7F7F26
:103FC0007F808182828180807F80818282828281E3
:103FD000818180808080818180807F7F7F808180DF
:103FE000807F7E7E7F8080807F7F7F8081818180D7
:103FF0007F7F8081828181807F7F80818181807FBE
:104000007F7F80808080807F7F7F7E7E7E7F8081BB
:1040100081807F7E7E7E80808080808080818180A4
:104020007F7E7E7F818281807F7D7D7E8081828197
:104030007F7E7D7D7E7F818181807E7E7E7F80818F
:1040400081807F7F7E7F7F808181807F7F7F7F7F78
:104050007F80808080807F7F7F7F7F808081818064
:1040600080808080808080807F7F80808181807F51
:104070007E7E7E808181807F7E7E7E7F808181804A
:10408000807F7F7F7F808182828181807F7F80802F
:10409000818181807F7F7F7F7F80808080807F7F24
:1040A0007E7E7F7F808080807F7F7F7F808080801A
:1040B000807F7F7F7F7F7F7F7F7F807F7F7F7F7F0E
:1040C0007F7F808080807F7F7F7F8080807F7F7FF9
:1040D0007F7F80807F7F7F7F7F8080807F7F7F7FEB
:1040E000808080807F7F808080807F7F7F7F8080D6
:1040F000807F7F7E7F7F808080807F7F7F7F7F7FCC
:104100007F80808080807F7F7F7F808080807F7FB6
:104110007F7F7F8080808080807F7F7F7F808080A6
:1041200080807F7F7F7F808080807F7F7F7F7F8098
:104130008080807F7F7F7F7F7F808080807F7F7F88
:104140007F80808080807F7F7F7F80808080808074
:1041500080807F7F7F808080808080807F7F7F7F66
:104160007F7F7F7F7F808080808080808080808054
:1041700080808080808080808080808080807F7F41
:104180007F7F7F7F7F7F7F7F7F7F7F7F7F7F7F7F3F
:104190007F7F80807F7F7F7F7F7F8080807F7F7F2A
:1041A0007F7F7F7F8080807F7F7F7F7F7F7F80801A
:1041B000807F7F7F7F7F7F7F7F7F7F7F7F7F7F7F0E
:1041C0007F7F7F7F7F7F7F7F80808080807F7F7FFA
:1041D0007F80808080807F7F7F7F808080807F7FE6
:1041E0007F7F7F80808080807F7F7F7F80808080D6
:1041F0008080807F7F7F808080808080807F7F7FC5
:104200007F80808080807F7F7F7F80808080807FB4
:104210007F7F8080808080808080808080808080A0
:104220008080808080808080808080807F7F7F8091
:1042300080808080807F80808080807F7F7F7F8083
:10424000808080808080808080808080808080806E
:10425000808080808080807F7F7F80808080808061
:10426000808080807F7F7F7F7F808080807F7F7F56
:104270007F7F7F80807F7F7F7F7F7F7F7F7F7F7F4C
:104280007F7F7F7F7F7F7F7F80807F7F7F7F7F7F3C
:104290007F7F7F7F7F7F7F7F7F7F7F7F7F7F7F7F2E
:1042A0007F7F7F7F7F8080807F7F7F7F7F80808018
:1042B00080807F7F7F7F80808080808080807F7F04
:1042C0007F7F7F7F7F7F7F7F7F7F7F7F7F7F7F7FFE
:1042D0007F7F7F7F7F7F7F7F7F7F7F7F7F7F7F7FEE
:1042E0007F7F7F7F7F7F7F7F7F7F808080808080D8
:1042F00080808080808080808080808080808080BE
:1043000080808080808080808080808080808080AD
:10431000808080808080808080808080808080809D
:10432000808080808080808080808080808080808D
:104330008080808080808080808080807F807F7F80
:104340007F7F7F7F7F7F7F7F7F7F7F7F7F7F7F7F7D
:104350007F7F7F7F7F7F7F7F7F7F7F7F7F7F7F7F6D
:104360007F7F7F7F7F7F7F7F7F7F7F7F7F7F7F7F5D
:104370007F7F7F7F7F7F7F7F7F7F7F7F7F7F7F7F4D
:104380007F7F7F7F7F7F7F7F7F7F7F7F807F807F3B
:104390007F7F807F7F807F807F8080807F7F7F7F27
:1043A0007F7F8080807F7F807F7F807F80807F8015
:1043B000808080807F808080808080807F808080FF
:1043C000808080808080807F80807F8080808080EF
:1043D0007F80808080808080808080807F808080DF
:1043E0008080807F807F807F80807F8080808080D1
:1043F00080808080808080808080807F80808080BE
:10440000807F80808080808080807F8080808080AE
:1044100080807F808080808080807F7F807F807FA1
:10442000807F80807F80807F807F807F807F807F93
:10443000807F8080807F807F807F807F807F7F8083
:104440007F807F807F807F80807F807F807F807F74
:10445000807F807F80807F807F80807F807F807F63
:10446000807F80807F807F80807F807F807F807F53
:10447000807F807F807F807F807F808080807F8042
:10448000808080807F807F8080808080807F807F30
:10449000807F808080807F80807F807F807F807F22
:1044A00080807F80807F80807F807F7F807F807F13
:1044B000808080807F807F807F807F807F807F8002
:1044C0007F807F8080807F807F807F807F80807FF3
:1044D000807F8080807F807F807F807F807F807FE3
:1044E000807F807F807F807F807F80807F807F80D3
:1044F000807F8080807F807F8080808080808080BF
:10450000807F807F807F808080807F80807F807FB1
:1045100080807F807F807F807F807F807F80807FA2
:10452000807F807F80807F807F807F80807F808091
:104530007F807F807F807F807F807F808080807F82
:1045400080807F807F80807F807F807F80807F8071
:104550007F807F807F80807F807F807F80807F8062
:104560007F807F807F807F807F807F807F807F8053
:10457000807F807F80807F807F807F807F80807F42
:104580008080807F807F80807F807F807F807F8031
:104590007F807F80807F807F807F807F807F807F23
:1045A000807F807F807F807F807F807F807F807F13
:1045B000807F807F807F807F807F807F80807F8002
:1045C000807F807F807F807F807F80807F807F80F2
:1045D000807F808080807F807F807F807F807F80E1
:1045E0007F80807F807F8080807F7F807F807F7FD3
:1045F000807F807F80807F8080807F807F80807FC1
:10460000807F80807F807F807F807F8080807F80B0
:104610007F807F807F807F807F80807F807F807FA2
:1046200080807F8080807F807F807F807F80807F90
:10463000807F8080808080807F808080807F807F7E
:10464000807F807F807F807F807F80807F80807F71
:10465000807F807F807F7F807F807F7F7F7F807F64
:10466000807F7F7F7F807F807F7F7F807F807F8054
:104670007F808080807F807F807F7F807F807F8041
:104680007F807F80807F808080808080808080802D
:10469000807F807F7F7F7F7F7F7F7F7F7F7F7F7F28
:1046A0007F7F7F808080808080808080808080800D
:1046B000808080808080807F7F7F7E7E7E7D7D7D0C
:1046C0007C7C7C7C7D7D7E7F8081828384848484ED
:1046D0008484848383828181807F7F7E7E7D7C7BD6
:1046E0007B7A79797979797A7B7D7F8182848586F5
:1046F000868685858484838382828181818080808F
:10470000808080807F7F7F7F7E7D7D7C7B7B7A79D0
:1047100078787778797A7D7F8183858585858484AB
:10472000848484848382818181818181818180806C
:104730007F7E7D7C7C7B7A797776757677797C7FD6
:104740008385878887868584848484838382818126
:10475000808081818282828282828181807F7D7C51
:104760007A78767473727374777B7F83878989888C
:104770008685848485858482807F7F7F8081838411
:104780008584838281818180807E7C797674727059
:104790006F6E7073787F84898C8D8C8A888685850E
:1047A000858482807E7D7E7F8183858788878684DD
:1047B000828181807F7D7A7774706E6C6A6B6E7394
:1047C0007A82888E9191908D8986858584827E7A81
:1047D0007878797D82888C8E8E8C898784827F7DA3
:1047E0007A787673716E6A6766676C737C858D9371
:1047F0009697948F8A878583817D797675767A807E
:10480000878E939593908B86827E7B78757271707C
:10481000706F6C68646468717E8B959A99958F8BC4
:104820008A8988837C757070757E878E91918F8D53
:104830008C8D8D8B847C736D6D717577746C625B00
:104840005B647586949997918D8D90928F867A6F1F
:104850006A6E7782898B8A898B90959591887F790A
:104860007677787977726E6B6A696563636C7C8D35
:104870009B9F9A938D8B8A8882786F6B6E79858ED9
:10488000908C898B9195948C81797A7F82807970D4
:104890006C6D71716C635B5D6B81939C99928F9170
:1048A000938F83746B6C7681888988898E93948FBB
:1048B000867E7C7F8587837C77767878746F6A665E
:1048C0006461636F80929C9B95908C8A837A716EF1
:1048D000737C84898B8D8F908E8B86848484848373
:1048E00081807F7D7975716D6B68625E5E6B81938F
:1048F0009C9A9594928C7F706A6E788184878C9153
:10490000958F847D7E84888886878A89827973746E
:1049100075736E686564636875879597938F8D8BE3
:1049200082777071798184888D93948E847E7E8164
:104930008383868B8F8C857D7877736F6C6C6C67C7
:1049400061616B7E8F969895928D807470737A7F7B
:1049500082878F94928A83807F8080848A8D8F8AD9
:1049600085807C7A7671706E6E6B64616472858FFF
:104970009495939086787373767D80878F92918AD1
:1049800086827D7C80868E908D8D89837B757677FF
:1049900073706A686661636A7B909595948E887B74
:1049A0007274787D82858F928D89817F7D7A838DE7
:1049B00091948F8C887E7976777974726F6A655E50
:1049C0006068788B9598968F877C7474777D8288E1
:1049D0008E908C88837E7C7F848B8F8F8E8B857F5F
:1049E0007A797B7877726D696261646A7A8C97975D
:1049F000928C847B75767C83868B8D8B86827F8080
:104A000082878C8D8A8584827D7B7F83817E776F90
:104A1000665F616166798A999991887D76747882FA
:104A2000878A8E8E8A827E7D7F8284878C8D898321
:104A30007F7F80818585837F776D6866636566701B
:104A4000828E9692887F75757A82898A8E8D898307
:104A50007D808183888886888985837F8186858417
:104A600082817D736E6C676467676C7C8E968E83C3
:104A70007E7B787B848D918B8784837E7C82878B01
:104A80008A8584878381818488868280807A746E17
:104A90006F6B6766656C7D8D958F858079797C8578
:104AA0008D8F8B8583807B7D81878C8985828583B3
:104AB0008182848A88837D7C7D7774716D69656469
:104AC0006A7788949388807B7A7C81898E8D8781B0
:104AD0007E7C7F828588898683838183838688889C
:104AE000837F7E7B797776736966666A707B8C9448
:104AF00091867D7A7A7F84898C8A85807D7E818388
:104B0000868887848383848484878786817D7C7A72
:104B10007976726D6A676569758695948A80797A07
:104B20007C81868C8E89827E7D7F82838587878645
:104B300084838486878684837F7E7B7976726D69A1
:104B40006668687484929A8A82777A7F7F87878C76
:104B50008A84807C7E828487858785868484848518
:104B600087858580807C7B77716D676766697282D7
:104B700092988D8277797D8083878C8B877E7C7FEE
:104B800083858585868786848182848686868381DF
:104B90007E7C76716C68666569748290968D847986
:104BA000787B7F85868A8988837F7E7F82858686DB
:104BB00086878686828082858884827E7C777169FA
:104BC0006564666B73818E9790877C797C7F838424
:104BD00086898986817F7F8284858585878785858B
:104BE000828383838382817C77706A6665656B725A
:104BF000828F9693877F797C7F818385888988845B
:104C00008180808383848486878684828182828275
:104C1000817F7C77726C6663636B778693969287ED
:104C20007E7A7A7E80858689888784817F7E80836C
:104C30008688888784828080818383817F7B767069
:104C40006A656267707F8E95958C837D7C7D7F80A1
:104C50008185878987827E7D7E8283848688898814
:104C6000837F7D8083827E797675746F67636B7BCB
:104C70008E99988E837D7B7C7C7B7D83898B8882DB
:104C80007D7C7D7F818385898B8A857E7C7E828207
:104C90007E78757475716B656A778794948F878158
:104CA000807F7E7C7C7F84888885828180808182F1
:104CB00085878A8986817E7E7F7F7C7A7674726E14
:104CC0006B696F7A868D8E8B888584817F7D7E81EE
:104CD0008585848282838384858484848585838199
:104CE0007E7D7C7C7B79777573706E70767D858731
:104CF000868686888784807E7F828484828182857E
:104D000088898987848382807F7D7D7D7D7C79769B
:104D10007472717172757A808283838487888783C5
:104D20008181828485838182858789888685838243
:104D3000807F7C7B7B7C7B7A7775747575767678E3
:104D40007C7F838484848384868786848281828432
:104D50008584848486878684817F7F7E7D7C7B7A40
:104D60007A7A7978777677797A7B7C7D7E8083838F
:104D700084848484858584848484848282828282FB
:104D80008281807F7E7E7D7D7C7C7C7C7C7C7B7C4C
:104D90007D7D7E7E7E7E7E7F808080808080818122
:104DA00080818182828181818181818080808181F5
:104DB000807F7F7F7F7F7E7E7E7F7F7F7E7E7E7E09
:104DC0007F7F7F7F7F7F7F7F7F80808080807F7FEE
:104DD0008080807F7F8080808080808080808080D5
:104DE00080808080808080808080807F7F7F7F7FC8
:104DF0007F7F7F7F7F7F7F7E7E7E7F7F7E7E7F7FC8
:104E00007F7F7F7F7F7F7F7F8080808080808081A9
:104E1000818080808080808080808080807F7F7F94
:104E20007F7F7F7F7E7E7E7F7F7F7F7F7F7F7F7F95
:104E3000808080808080818181818181818180806A
:104E4000808080808080807F7F7F7F7F7F7E7E7E6E
:104E50007E7E7E7E7E7F7F7F7F7F7F7F8080808063
:104E6000808181818181818080808080808080803C
:104E7000807F7F7F7F7F7F7F7F7E7E7E7F7F7F7F44
:104E80007F7F7F7F80808080808080808080808026
:104E9000808080808080808080807F7F7F7F7F7F18
:104EA0007F7F7F7F7F7F7F7F7F7F7F7F7F8080800F
:104EB00080808080808080808080808080808080F2
:104EC000807F7F7F7F7F7F7F7F7F7F7F7F7F7F7FF1
:104ED0007F7F7F7F808080808080808080808080D6
:104EE00080808080808080807F7F7F7F7F7F7F7FCA
:104EF0007F7F7F7F7F7F7F7F7F7F7F7F7F808080BF
:104F00008080808080808080808080807F7F7F7FA5
:104F10007F7F7F7F7F7F7F7F7F7F7F7F7F7F7F7FA1
:104F20008080808080808080808080808080808081
:104F30008080808080808080808080807F7F7F7F75
:104F40007F7F7F7F7F7F7F7F7F807F80808080806B
:104F50008080808080808080808080808080808051
:104F60008080808080807F807F7F7F80807F7F7F48
:104F70007F7F7F7F7F7F7F80807F7F7F808080803B
:104F800080807F7F7F80808080807F7F8080807F27
:104F90007F7F8080808080807F7F7F807F7E7F801A
:104FA0008080807F7F807F7F7F7F808080807F7F09
:104FB0007F808080807F7F80807F7F7F80808080F7
:104FC00080808080888980787982837F7A7B8081E5
:104FD0007F7C7D8182807F7F807E81847E7A7A83E0
:104FE000837D7E7E817E7E8080817F81827E7D7ECC
:104FF00080807D7E80817F7D7F7F7F7E7E7F7F7FC3
:105000007F7F808181807F7F818282807F7E7E7EA4
:105010007F7F7F7F807F7F7F7F7F7F7F80807F7F9D
:105020007F80808080807F807F7F807F8181808083
:105030008081807F808282807F8080807F7F80806F
:105040007E7E7F7F7F7E7E7F7E7E7D7D7D7C7D7E82
:105050007F7F80807F808081828384838383838439
:105060008483838282818182807F7C7B7A7776745D
:105070007574727274787D82878A8B8A8988858339
:1050800082818281818283858585858586858583E8
:1050900083838281807F7E7B797775706B6765679C
:1050A0006C7580888B8D8D8B8783818182828282D3
:1050B00083858686868584838383838485868684A8
:1050C000838282817F7E7C7A7774716F6C69686974
:1050D000747F878B8B8C8A86827F80828283838594
:1050E0008586858483838382818283848484848487
:1050F00083838181817F7D7B7977767371706C6C1E
:105100006A707A848B8A8A8987848081838686857F
:10511000868685828080828283838384858484845A
:1051200084848281807F7F7D7C7A777573737371CD
:105130006D6D6B707A858C8A898787868383848678
:10514000868585858584817F808283828081838531
:10515000858484848382817F7F7E7C7A797776756B
:1051600074747472706E6F727B858A8B898889887B
:10517000868586888A8A8785838281807F7E7E7EF7
:105180007E81848686868684827F7F7F807E797614
:1051900074747474747474726F6E7078838B8D8B86
:1051A000888787878787898A888684838381807EAA
:1051B0007D7E7F7F808285868584838282817F7EDB
:1051C0007E7D7C7A77767577777776757473727271
:1051D0007780888A87848487888887878889878575
:1051E000848383807D7B7B7E8082848484848484AA
:1051F00084858483817F7D7B7A78767575747474F9
:105200007372717174787F8588888788898A8A89A2
:1052100088888786858382807F7D7C7D7F8183846B
:10522000858586858485848482807E7D7C7B797774
:1052300076757574747474737171747A80858787E8
:1052400088898B8B8B8A8A898785848281807E7C02
:105250007C7C7D7F81838485858584848383828132
:105260007F7D7B7B797876757574757474737373D1
:1052700075797E82858688898B8B8A8989898888D9
:10528000868483817F7E7D7D7E7E7F808283848510
:10529000868686848381807E7D7C7A797775737239
:1052A00072717171717274787C808385888A8C8D3B
:1052B0008D8D8D8C8B89878583817F7E7D7D7D7DA6
:1052C0007D7F7F81828384848484838281807E7DCC
:1052D0007B797776757473727272717274777A7D76
:1052E0007F83868A8C8E8F8F8F8F8D8B888684822A
:1052F0007F7D7B7A7A7A7B7C7D7F818284858686BE
:10530000858483827F7D7B78767574737271717109
:10531000727375787C7F8285888B8D8F8F8F8E8D51
:105320008C89878583807E7D7B7A7A7A7B7C7D7F82
:10533000818284848585858483817F7D7B7977756F
:10534000737272717171727375797C7F82868A8CC7
:105350008E8F908F8F8D8B898684817F7D7C7B7BE8
:105360007B7B7C7D7F808182848585858483828030
:105370007E7C7A7776747373727272737475787BCD
:105380007E8083868A8C8D8D8D8E8D8C8A88858398
:1053900082807E7D7C7C7C7C7D7E7F818283838419
:1053A00084848382817F7D7B79787675757473734D
:1053B00074747576797B7E808386888A8B8C8C8CDE
:1053C0008C8B89878583817F7E7D7D7D7C7D7E7FC3
:1053D00080818283838383838281807E7C7B7978D2
:1053E0007675757475757677777A7C7D808284861C
:1053F0008788898989898988878684838281817F52
:105400007F7F7F8080818182828382828281807F90
:105410007D7C7A7977767575747474747576787B1B
:105420007D80828587888A8B8B8A8A898886848317
:1054300082807F7E7D7D7E7E7F8081828383848467
:1054400084838382807F7D7B7A78777675757575A6
:10545000757677797A7B7E8082838586878889894D
:10546000888887868583828181807F7F8080808114
:105470008182828383828281807F7D7C7A79787742
:1054800076767676777878797A7C7E7F8182838566
:1054900086878787878787868584848382818181C1
:1054A00081808080808181818080807F7E7D7C7B07
:1054B0007A7978787877777879797A7B7C7E7F804B
:1054C000818384858586878787878685858584838C
:1054D0008282818181808080807F7F7F7F7E7D7DD1
:1054E0007D7C7B7B7A7A7979797A7A7A7B7B7D7D10
:1054F0007E7F818282838484858585858585858478
:105500008483838382828181818180807F7F7F7E8B
:105510007D7D7C7C7B7B7A7A7A7A7A7A7B7B7C7CD9
:105520007D7E7E7F80818182828383838383838368
:10553000838382828382828282828281818180804F
:105540007F7F7E7E7D7D7C7C7C7C7B7B7B7B7B7B95
:105550007C7C7D7D7E7F7F8081818282838383824C
:105560008282828281818181818181818181818127
:10557000818181818080807F7F7E7E7D7D7C7C7C3F
:105580007C7C7C7D7D7E7E7F7F808080818181822E
:105590008282828181818181808080808080808000
:1055A00080808080808080807F7F7F7F7E7E7E7E07
:1055B0007E7D7D7E7E7E7E7E7F7F808080818181FC
:1055C00081818181818181818080808080808080D3
:1055D0008080808080808080807F7F7F7F7E7E7ED5
:1055E0007E7E7E7E7F7F7F7F7F80808080808080C8
:1055F0008080808080808080807F80807F7F8080AE
:10560000808080808080808080807F7F7F7F7F7FA0
:105610007F7F7F7F7F7F7F7F808080808080808092
:1056200080808080808080808080808080807F7F7C
:105630007F7F7F7F7F7F7F7F7F7F7F7F8080808076
:10564000808080808080808080807F807F7F7F7F5F
:105650007F7F7F7F7F7F8080808080808080808050
:105660008080807F7F807F7F7F7F8080807F808041
:10567000807F7F7F7F7F807F7F807F807F80807F34
:10568000807F807F807F7F807F807F7F8080807F22
:105690008080807F8080807F807F7F7F7F807F7F12
:1056A0007F808080808080808080808080808080FB
:1056B000807F80807F807F7F807F8080807F807FF1
:1056C000807F808080808080807F807F807F807FDF
:1056D000807F7F7F7F8080807F80808080808080CF
:1056E00080808080807F808080807F80807F807FBE
:1056F000807F807F80808080808080807F808080AD
:105700007F807F807F7F7F7F7F807F807F807F80A3
:1057100080807F80807F80807F807F807F807F808F
:10572000807F807F80807F807F807F807F807F8080
:105730007F807F807F807F807F807F807F807F8071
:105740007F807F80807F80807F807F80807F807F60
:10575000807F807F807F807F80807F807F8080804F
:10576000807F80808080807F807F80807F807F803E
:10577000807F807F80807F807F80807F807F807F30
:1057800080807F807F80807F807F807F80807F801F
:105790007F80807F807F80807F807F807F807F8010
:1057A0007F807F80808080808080807F80807F80FD
:1057B0007F807F807F807F807F807F807F80807FF1
:1057C000807F7F807F807F80807F807F807F8080E0
:1057D00080807F807F807F807F807F8080807F80CF
:1057E0007F807F80807F807F80807F807F808080BF
:1057F0007F807F807F807F807F80807F807F8080B0
:105800007F807F80807F80807F8080807F807F809E
:105810007F808080807F807F807F80807F807F808E
:105820007F7F807F807F80807F807F807F80807F80
:1058300080807F80807F80807F807F80807F807F6E
:10584000807F807F807F80807F807F807F80807F5F
:10585000807F807F807F807F807F807F807F807F50
:10586000807F80807F807F807F807F807F807F803F
:105870007F7F807F807F807F80807F80807F807F30
:10588000807F807F807F807F807F80807F80807F1F
:10589000807F807F807F807F807F807F807F807F10
:1058A000807F80807F807F80807F807F8080807FFE
:1058B000807F80807F807F807F807F808080807FEE
:1058C000808080807F807F80807F807F80807F80DD
:1058D000807F807F80807F80807F807F807F807FCF
:1058E000807F80807F807F807F807F807F807F80BF
:1058F0007F807F807F807F80807F807F807F807FB0
:10590000807F807F8080807F807F807F80807F809D
:105910007F80807F807F807F807F807F80807F808E
:105920007F8080807F807F80807F807F807F807F7E
:10593000807F807F80807F80807F807F8080807F6D
:10594000807F807F807F808080807F807F80807F5D
:10595000807F807F80807F80807F807F80807F804D
:105960007F807F80807F80808080807F807F807F3D
:1059700080807F807F80807F807F807F807F80802D
:105980007F807F807F807F807F80807F807F807F1F
:10599000807F80807F807F80807F807F80807F800D
:1059A0007F807F807F80808080807F807F807F80FD
:1059B0007F807F807F807F807F807F8080808080ED
:1059C000808080807F808080807F807F807F8080DB
:1059D0007F807F807F807F80807F807F807F8080CE
:1059E000807F807F80807F807F807F807F80807FBE
:1059F00080807F807F807F8080807F807F807F7FAE
:105A0000807F807F80808080807F807F807F807F9C
:105A1000807F807F807F807F807F807F8080807F8D
:105A2000807F807F807F80807F807F80807F807F7D
:105A3000807F807F80807F80807F807F807F807F6D
:105A400080807F807F80807F807F808080807F805B
:105A50007F807F808080807F807F807F807F807F4D
:105A600080808080807F7F807F807F8080807F803B
:105A70007F7F807F80807F807F807F807F80807F2E
:105A8000807F7F807F807F80807F807F8080807F1D
:105A9000807F807F807F80807F807F807F807F800D
:105AA0007F8080807F807F807F80807F807F8080FC
:105AB000807F807F808080807F807F807F807F80EC
:105AC000807F807F807F80807F807F8080807F80DC
:105AD0007F80807F807F807F807F807F80807F80CD
